:020000040800F2
:104000000050002015BE000839BD00083FBD000863
:1040100045BD00084BBD000851BD00080000000070
:1040200000000000000000000000000021760008F1
:1040300057BD000800000000B176000859BD000817
:104040005DBE00085DBE00085DBE00085DBE0008E4
:104050005DBE00085DBE00085DBE00085DBE0008D4
:104060005DBE00085DBE00085DBE00085DBD0008C5
:104070005DBE00085DBE00085DBE00085DBE0008B4
:10408000B1BD0008BDBD000869BD00085DBE0008E7
:104090005DBE00085DBE00085DBE00085DBE000894
:1040A0005DBE000875BD00085DBE00085DBE00086D
:1040B0008DBD000881BD00085DBE000899BD0008E7
:1040C000A5BD00085DBE00085DBE00085DBE00081D
:1040D0005DBE00085DBE00085DBE00085DBE000854
:1040E0005DBE00085DBE00085DBE00080000000067
:1040F00000000000000000000000000000000000C0
:0C41000000000000000000005FF8E0F18B
:1041100010B5054C237833B9044B13B10448AFF301
:1041200000800123237010BD9002002000000000D9
:10413000D0BE000808B5034B1BB103490348AFF3D9
:10414000008008BD0000000094020020D0BE0008DE
:10415000034613F8012B002AFBD1181A01387047C7
:10416000D0400B1CD1409C46203AD34018435242C9
:104170006346934018437047074A08B51368032005
:1041800043F01003136000F0DFFC0F2007F086FD02
:1041900007F06CFC002008BD00200240024A1368B2
:1041A00001331360704700BFAC2D0020014B18682D
:1041B000704700BFAC2D002037B50190FFF7F6FF28
:1041C0000546019C631C18BF0134FFF7EFFF401B3D
:1041D000A042FAD303B030BD7047436A10B59A6A63
:1041E00012F0500F1BD19A6A42F400729A621A6858
:1041F000926802F46022B2F5602F0CD1DA6852B9ED
:104200009A6A22F480729A629A6AD2045EBF9A6AAB
:1042100042F001029A621846FFF7DEFF10BD1B6AEA
:10422000BDE810401B6B1847704708B5406AFFF7A0
:10423000FBFF08BD7047036810B55A680446900636
:1042400027D51A68910724D5A26AD2065EBFA26A52
:1042500042F40072A2629A6802F46022B2F5602F02
:1042600010D1E26872B95A6822F020025A60A36A3B
:1042700023F48073A362A36ADB045EBFA36A43F0E6
:104280000103A3622046FFF7A7FF6FF01202236825
:104290001A6023685A68100630D51A6851072DD560
:1042A000A26AD2065EBFA26A42F40052A2629A6873
:1042B00002F4E042B2F5E04F0AD05A68500516D435
:1042C0009A6802F46022B2F5602F10D1E26872B9E8
:1042D0005A6822F080025A60A36A23F48053A362D2
:1042E000A36AD9055EBFA36A43F00103A362204617
:1042F00007F090FB6FF00C0223681A6023685A687D
:1043000052060DD51B68DB070AD5A36A204643F485
:104310008033A362FFF78EFF6FF0010223681A60FB
:1043200010BD7047406A08B5836A43F0400383625A
:10433000C36A43F00403C362FFF7F3FF08BD000044
:10434000002373B5019390F82430012B74D001231E
:104350004D6880F82430062D02684FEA85030C680A
:1043600025D82B441F25566B053B9D4026EA0505A5
:1043700004FA03F32B435363092C4FEA44038D687B
:104380002FD907262344D1681E3B9E4021EA06010F
:1043900005FA03F30B43D360A4F11003012B2BD9CF
:1043A0000023002280F82420184602B070BD0C2D96
:1043B0000BD82B441F25166B233B9D4026EA050591
:1043C00004FA03F32B431363D6E72B441F25D66A65
:1043D000413B9D4026EA050504FA03F32B43D362D3
:1043E000CAE70726116923449E4021EA060105FA1F
:1043F00003F30B431361CFE7104B9A4216D1936836
:104400001B02CDD49368102C43F400039360C7D1F2
:104410000B4B0C4A1B68B3FBF2F20A235343019384
:10442000019B002BBCD0019B013BF8E7836A43F062
:10443000200383620123B4E70223B5E7002401408F
:104440008802002040420F00002373B501930368E7
:1044500004469A68D20702D5002002B070BD9A685F
:1044600042F001029A60124B124A1B68B3FBF2F34E
:104470000193019BC3B9FFF799FE064623689D6827
:1044800015F00105E8D1FFF791FE801B0228F5D950
:10449000A36A84F8245043F01003A362E36A012066
:1044A00043F00103E362D8E7019B013BE0E700BF73
:1044B0008802002040420F0090F8243010B5012BF4
:1044C000044654D0012380F82430FFF7BDFF0028B4
:1044D00049D1A36A274A23F4407323F0010343F42C
:1044E0008073A3622368934204D123494A6812F47B
:1044F000702F2ED1A26A22F48012A2625A6852054D
:1045000041BFA26A22F4405242F48052A262A26ADF
:1045100012F480521CBFE26A22F00602E26200221C
:1045200084F824206FF002021A609A6802F4602274
:10453000B2F5602F13D10F4A934205D1A2F58062E4
:10454000526812F4702F0AD19A6842F4A0029A605D
:1045500010BDA26A42F48012A2624A68CFE79A684C
:1045600042F48012F3E7002384F8243010BD0220C7
:1045700010BD00BF002801400024014038B5036889
:1045800004469A68D20701D4002038BD9A6822F008
:1045900001029A60FFF70AFE054623689B68DB0765
:1045A000F2D5FFF703FE401B0228F6D9A36A0120CB
:1045B00043F01003A362E36A43F00103E36238BDF2
:1045C00070B50446002871D0836A23B9C36280F8AD
:1045D000243007F093FA2046FFF7D0FFA36A13F0C8
:1045E000100FA36A64D1002862D1E16923F48853D3
:1045F000626823F0020343F002030A43A168A36246
:10460000E368B1F5807F42EA430238D0012914BF44
:1046100006464FF480766569012D07D1002B30D115
:10462000A369013B46EA433545F400662368B1F5CA
:10463000807F5D6825F4694545EA06055D609E68F2
:104640001D4D05EA060545EA02059D6001D00129D8
:1046500020D1216901390905DD6A25F47005294356
:10466000D9629968154B0B409A4215D10023E36239
:10467000A36A23F0030343F00103A36270BD0E4657
:10468000C9E7A36A43F02003A362E36A43F001038E
:10469000E362CBE70021DFE7A36A23F0120343F0D4
:1046A0001003A362E36A43F00103E362012070BDDB
:1046B00043F01003A362F9E7FDF7E1FFFE0E1FFFD1
:1046C000002373B5019390F824300446012B5AD08F
:1046D000012380F82430FFF751FF0546002832D12E
:1046E000A36A022023F4885323F0020343F0020359
:1046F000A362264B1E6802F0A1FAB6FBF0F0400060
:104700000190019B1BBB2046FFF79EFE2268936829
:1047100043F008039360FFF749FD064623689A6853
:10472000120718D49A6842F004029A60FFF73EFD1F
:10473000064623689B685B071FD4A36A23F0030324
:1047400043F00103A362002384F8243012E0019BAC
:10475000013B0193D5E7FFF729FD801B0A28DDD92E
:10476000A36A012523F0120343F01003A362002380
:1047700084F82430284602B070BDFFF717FD801B77
:104780000A28D6D9ECE70225F4E700BF880200200A
:1047900090F8243010B5012B04464AD0012380F84C
:1047A0002430FFF751FE00283FD1A36A224A23F4A8
:1047B000405323F0010343F48053A36223689342E0
:1047C00005D1A2F58062526812F4702F25D1A26A39
:1047D00022F48012A262A26A12F4807208BFE2621E
:1047E000002284F824206FF004021A605A685205EF
:1047F00020D49A6802F4E042B2F5E04F11D10E4A9B
:10480000934205D1A2F58062526812F4702F08D14C
:104810009A6842F402129A6010BDA26A42F48012B1
:10482000D8E79A6842F40042F5E7002384F8243080
:1048300010BD022010BD00BF00280140F0B590F867
:1048400024308DB0012B04460E46174658D0012562
:104850002C4B80F8245000939B6803F46023B3F53D
:10486000602F07D0836A43F020038362002384F81B
:10487000243042E0FFF7E8FD05460028F6D16846FF
:10488000FFF7E2FD05460028F0D1A26A1E4B216821
:10489000134043F48073A3624B68206A5B0548BFF2
:1048A000A36A324642BF23F4405343F48053A362C9
:1048B0000023E36284F82430144B4C318362144BA0
:1048C000C362144B03636FF0020341F84C3C51F890
:1048D000443C43F4807341F8443C3B4600F0DCF92F
:1048E00023689A6802F46022B2F5602F9A680CBFC0
:1048F00042F4A00242F480129A6028460DB0F0BD46
:104900000225FAE700280140FEFCEFFFDB4100082A
:104910002B42000825430008F7B50246002092F814
:1049200024300190012B00F0D8800127D2F808E054
:1049300082F824704E6813680D68BEF1000F7BD1B9
:10494000BE4273D170469C6BA40DA40544EAC534E5
:104950009C639C68E40707D49C68CF6924F4E04416
:1049600024F001043C439C608C69012C0DD1CF697B
:10497000B7F5E04F17BF906A5F6840F02000906283
:1049800012BF204647F480675F604F69012F05D151
:10499000002C74D15C6844F480545C60092D4FEAAB
:1049A0004504D1F808E070D94FF0070C2C44DF68BB
:1049B0001E3C0CFA04FC27EA0C070EFA04F43C43F4
:1049C000DC60A5F11004012C98BF9F68DFF81CE1A2
:1049D0009CBF47F400079F60022ECF6862D0032E71
:1049E00066D0012E6AD1596901EA0E013943596135
:1049F000012C16D83A498B4269D19968090210D422
:104A00009968102D41F4000199600AD1354B36495F
:104A10001B68B3FBF1F10A234B430193019B002B6D
:104A200052D1002382F8243003B0F0BD946A384696
:104A300044F0200494628CE70F69D3F838E0F41B4B
:104A400004EB8404BE4204F10F0410D807F1FF3CCC
:104A500005FA04F747EA0C574FF01F0C0CFA04F460
:104A600044F440142EEA04043C439C6371E71F277E
:104A700007FA04F444F440142EEA0404F5E7906ABB
:104A800040F020009062384688E74FF0070C1F691D
:104A90002C440CFA04FC27EA0C070EFA04F43C43FD
:104AA0001C618EE7996901EA0E01394399619FE71C
:104AB000D96901EA0E013943D96199E7196A01EA16
:104AC0000E013943196293E7019B013BA5E7936A05
:104AD000012043F020039362A3E70220A4E700BF74
:104AE000002401408802002040420F0000F0FFFF38
:104AF00090F8243010B5012B02461FD00123046822
:104B000080F82430A368DB0712D40D4B9B6813F0A8
:104B100001030DD10B4884420AD16068096820F472
:104B20007020014318466160002382F8243010BDD4
:104B3000936A012043F020039362F5E7022010BD41
:104B40000028014000240140074A0002D36800F415
:104B5000E06023F4E0631B041B0C43F0BF6343F4E9
:104B600000330343D360704700ED00E0174B30B5CE
:104B7000DC68C4F30224C4F10703251D042B28BFFD
:104B80000423062D4FF0010598BF002405FA03F316
:104B900003F1FF3388BF033C1940A14005FA04F438
:104BA000013C2240002842EA01024FEA0212AFBF54
:104BB00000F16040064B00F00F00D2B2A5BFD2B2A8
:104BC00000F561401A5480F8002330BD00ED00E08C
:104BD00014ED00E00123420900F01F0003FA00F089
:104BE000014B43F82200704700E100E00138B0F1CA
:104BF000807F0AD2F021064B064A586082F82310C3
:104C00000020072298601A6070470120704700BF9B
:104C100010E000E000ED00E0044B04281A680CBF2F
:104C200042F0040222F004021A60704710E000E033
:104C300010B550B314220168154B84680B44B3FBC4
:104C4000F2F39B000364134B0A68C363436822F4C6
:104C50007F522343C46822F0300223430469234374
:104C60004469234384692343C469234313430B608A
:104C70000122002380F821208362C362036343631F
:104C8000836380F82030184610BD012010BD00BF9E
:104C9000F8FFFDBF00000240F0B590F82040012C65
:104CA00035D0012490F8215080F82040A5424FF0E3
:104CB00000064FF0020428D180F821400468866382
:104CC0002668076C26F001062660C66BBD4075603D
:104CD000636043680568102BC36A0BBFA260A160C4
:104CE000E160E2604BB1236843F00E0323602B6860
:104CF000002043F001032B60F0BD236823F0040380
:104D00002360236843F00A03F0E780F82060022064
:104D1000F0BD000090F8213010B5022B03D0042321
:104D20008363012010BD03681A6822F00E021A6026
:104D30001A6822F001021A60184A93421FD01432F6
:104D400093421ED0143293421DD0143293421DD090
:104D5000143293421DD0143293420CBF4FF480138F
:104D60004FF080730E4A00245360012380F82130F5
:104D7000436B80F820407BB19847204610BD01234B
:104D8000F0E71023EEE74FF48073EBE74FF4805326
:104D9000E8E74FF48033E5E7184610BD080002400D
:104DA0000000024070B40425C66B026C34680368CE
:104DB00095402542196832D04D0730D51A689606BD
:104DC0005EBF1A6822F004021A603E4A934219D06C
:104DD0001432934218D01432934217D014329342B3
:104DE00017D01432934217D0143293420CBF4FF4B1
:104DF00080034FF08063344A5360C36A002B5ED057
:104E000070BC18470423F6E74023F4E74FF48063AF
:104E1000F1E74FF48043EEE74FF48023EBE7022500
:104E20009540254235D08D0733D51A68940606D4AF
:104E30001A6822F00A021A60012280F82120214A11
:104E4000934219D01432934218D01432934217D09F
:104E50001432934217D01432934217D01432934233
:104E60000CBF4FF400134FF00073174A5360002338
:104E700080F82030836AC1E70223F6E72023F4E7B5
:104E80004FF40073F1E74FF40053EEE74FF40033B3
:104E9000EBE708259540254211D009070FD5196881
:104EA00021F00E011960012303FA02F2726083639C
:104EB00080F82130002380F82030036B9EE770BC1F
:104EC000704700BF0800024000000240114AD3684A
:104ED00013F0100305D01049CB6943F00203CB61F6
:104EE0001023D268500706D50B4943F00403CA6962
:104EF00042F00102CA61074AD169C90708D50648CC
:104F0000C16941F00401C161D16921F00101D161A0
:104F1000D360704700200240B02D0020064B1A6974
:104F2000120641BF054A00205A6002F188324CBF88
:104F30005A600120704700BF0020024023016745EE
:104F4000034A0020136943F080031361704700BFD8
:104F500000200240F8B50646FFF728F9114C074635
:104F60002546E368D80712D4E368990644BF202396
:104F7000E360EB68DA0606D4EB69DB0703D4E86884
:104F800010F0040002D0FFF7A1FF0120F8BD731C50
:104F9000E7D00EB90320F8BDFFF708F9C01B864221
:104FA000DFD2F7E7002002402DE9F84F1F4C994669
:104FB000237E0546012B0F46904633D001234CF249
:104FC00050302376FFF7C6FF40BB012D03D0022DE2
:104FD0000CBF022504250026B246DFF854B032018A
:104FE00040464946FFF7BCF8C4F81CA0DBF8103077
:104FF00080B243F00103CBF8103027F816004CF2D2
:105000005030FFF7A7FFDBF8103023F00103CBF897
:10501000103018B90136F3B29D42E0D80023237650
:10502000BDE8F88F0220BDE8F88F00BFB02D00204A
:10503000002002400022064BDA61064B1A6942F05A
:1050400004021A611A6942F040021A61704700BFF7
:10505000B02D0020002002400022064BDA61064BF2
:105060001A6942F002021A6158611A6942F040025C
:105070001A617047B02D0020002002402DE9F04158
:10508000234D07462B7E8846012B3DD00124036823
:105090002C76022B4CF2503013D1FFF75BFF20B17E
:1050A000012000232B76BDE8F081FFF7C3FF4CF20F
:1050B0005030FFF74FFF174A136923F004031361C1
:1050C000EFE7FFF747FF0028EAD14FF0FF33C8F8BA
:1050D00000302046BE680F4CFA68BB6803EB8223A1
:1050E0009E42DED23046FFF7B7FF4CF25030FFF75A
:1050F00031FF236923F00203236110B1C8F8006077
:10510000CFE706F58066E7E70220BDE8F08100BF43
:10511000B02D0020002002402DE9F74F0022164656
:10512000654BDFF8A4E1DFF8A4C14FF001080C687B
:1051300008FA06F808EA0404A0457FD14D68122D4C
:1051400000F0AF8000F28880022D00F0A7807CD8AC
:10515000002D00F08E80012D00F09E804FF00F0991
:10516000FF2C93BF824606F18045083DD0F800B081
:1051700092BFB500D0F804B0AD0009FA05F82BEAEB
:10518000080802FA05F588BF00F1040A48EA050597
:10519000CAF80050D1F804A01AF0805F4ED0474DF5
:1051A000464FAD6926F0030845F00105BD61BD69B4
:1051B00008F1804805F00105019508F5803806F0F2
:1051C000030B019D4FEA8B0BD8F8085009FA0BF935
:1051D00025EA09093A4DA84268D005F58065A8423C
:1051E00066D005F58065A84264D005F58065A842C3
:1051F0000CBF0325042505FA0BF545EA0905C8F897
:1052000008501D681AF4803F14BF2543A5431D6054
:105210005D681AF4003F14BF2543A5435D609D6897
:105220001AF4801F14BF2543A5439D60DD681AF45E
:10523000001F14BF2C4325EA0404DC600136102E45
:105240007FF473AF03B0BDE8F08F032D22D0112D92
:1052500084D1CA68043281E71A4FBD4209D012D8FE
:10526000DFF86C904D4504D009F580394D457FF449
:1052700075AF8A68C2B1012A0CBFC0F81080C0F8AF
:10528000148008226AE77545F3D06545F1D0DFF850
:105290004490EBE7002261E7CA685FE7CA6808321A
:1052A0005CE7CA680C3259E7042257E70025A2E7F9
:1052B0000125A0E702259EE70004014000100240FE
:1052C00000080140000021100000311000003210E1
:1052D00000001110000022108368194214BF012041
:1052E000002070470268536913F480630DD06FF497
:1052F000806353610423202203640023036380F846
:105300003C3080F83D2001207047184670472DE959
:10531000F843044617469946C1F307488EB22568FC
:10532000B8F1010F0CBF6B69AB6936EA030314BF18
:105330000120002008B9BDE8F8836B695A0512D531
:105340002B68202243F400732B606FF480636B6141
:105350000423236400230120236384F83C3084F871
:105360003D20BDE8F8837B1CD9D04FB90023202213
:10537000236384F83C3084F83D200320BDE8F883A3
:10538000FEF714FFA0EB09008742C8D2EEE72DE933
:10539000F843044690461F46089EC1F307498DB264
:1053A0002368B9F1010F0CBF5B699B6935EA030300
:1053B0000CBF01230023434502D00020BDE8F88341
:1053C0007B1CEDD05FB900232022236384F83C309E
:1053D00084F83D20032084F83E30BDE8F883FEF7D2
:1053E000E5FE801B8742DBD2EDE770B504460D4633
:1053F000164623685B691B0601D5002070BD204658
:10540000FFF770FFA8B96A1CF3D065B9236C20229E
:1054100043F02003236400230320236384F83C30FB
:1054200084F83D2070BDFEF7C1FE801B8542E0D2AE
:10543000ECE7012070BD00002DE9FF411546026830
:10544000984613680B9E43F4807313600F460096D2
:105450000A9B00224FF001110446FFF798FF68B93C
:10546000236807F0FE071F610A9A33461A4920464F
:10547000FFF74DFF30B1236C042B18D0032004B08C
:10548000BDE8F081236803905A690A9903929B69E9
:10549000324603932046039BFFF7A7FF48B1236CD6
:1054A000042BEBD12268136843F4007313600120CE
:1054B000E5E7B8F1010F236802D1EDB21D61DEE727
:1054C0002A0A1A610A9932462046FFF78EFF002801
:1054D000E5D12368F1E700BF020001002DE9FF419B
:1054E0009846036816461A680B9D42F480621A605B
:1054F0001A680F4642F480721A604FF0011100954D
:105500000A9B00220446FFF742FF80B92368FFB2DE
:1055100007F0FE021A612D492B460A9A2046FFF732
:10552000F6FE40B1236C042B01D1012000E00320E2
:1055300004B0BDE8F081236803905A690A99039288
:105540009B692A4603932046039BFFF74EFF40B119
:10555000236C042BEBD12268136843F400731360AF
:10556000E3E7B8F1010F236824D1F6B21E612A46A1
:105570000A992046FFF739FF02460028E8D1216842
:1055800020460B6843F480730B6000950A9B4FF034
:105590000111FFF7FCFE0028C9D1236847F001077D
:1055A0001F610A9A2B4609492046FFF7B0FE0028E2
:1055B000B8D1BDE7320A1A610A992A462046FFF798
:1055C00014FF0028C4D12368CFE700BF0200010008
:1055D00070B504460D4616462068436913F0400333
:1055E00001D0002070BD4269D2060BD56FF01002C9
:1055F00042612022236484F83C302363012084F834
:105600003D2070BD5DB9236C032043F0200323646B
:10561000202384F83D30002384F83C3070BDFEF731
:10562000C5FD801B8542D7D2EDE770B504460D4617
:10563000164623685B695B0701D5002070BD2046D4
:10564000FFF750FEA8B96A1CF3D065B9236C20227D
:1056500043F02003236400230320236384F83C30B9
:1056600084F83D2070BDFEF7A1FD801B8542E0D28D
:10567000ECE7012070BD000070B50446002863D03F
:1056800090F83D3003F0FF021BB980F83C2006F093
:1056900083FA2423226884F83D3013682B4E23F0CC
:1056A0000103136001F014FA6368294DB342B0FBA3
:1056B000F5F588BF4FF49671226888BF694355603D
:1056C00085BF4FF47A75B1FBF5F1691C0131B34226
:1056D000116221D85B00B0FBF3F0C0F30B03032B86
:1056E00098BF0420216AE369D0610B431360E1682D
:1056F000236900200B439360A16963690B43D36066
:10570000136843F0010313602023206484F83D30C4
:10571000206384F83E0070BDA16849B903EB4303E0
:10572000B0FBF3F0C0F30B0363B140F40040D9E7E2
:1057300019214B43B0FBF3F0C0F30B0313B140F45A
:105740004040CFE70120CDE7012070BDA0860100D9
:1057500040420F002DE9FF4104461F460D4690468A
:10576000FEF724FD94F83D300646202B04D0022598
:10577000284604B0BDE8F0810090192301225D495C
:105780002046FFF704FE0028F1D194F83C30012BAD
:10579000EDD0012384F83C3023681A68D2075EBF3D
:1057A0001A6842F001021A601A6822F400621A6054
:1057B000212284F83D20102284F83E200022226419
:1057C000A2F580326785E262628DC4F8248022856A
:1057D000E26A042A04D0012A02D012F5803F04D1E3
:1057E0001A6842F480721A6002E0226B122AF7D023
:1057F00000960A9B00224FF001112046FFF7C7FDDB
:1058000028BB23692268B3F5804F12D105F0FE054D
:10581000156133460A9A38492046FFF778FD054658
:10582000A0B9236803905A6903929B690393039B71
:1058300050E0EB1103F0060343F0F00313612F492E
:1058400033460A9A2046FFF762FD48B1236C236C69
:10585000042B4FF0000307D184F83C30012587E783
:105860002368EDB21D61D4E784F83C3003257FE75F
:1058700032460A992046FFF7B8FD40B1236C042B4D
:10588000F4D12268136843F400731360E6E7616A99
:1058900020684B1C63620B78228D0361638D013B92
:1058A0009BB263854769531E9BB27F0723850AD548
:1058B0004BB18B1C63624B78023A0361638D228586
:1058C000013B9BB2638532460A992046FFF7ADFE45
:1058D0000028D3D1238D002BCAD121680A6842F455
:1058E00000720A60202284F83C3084F83D2084F85D
:1058F0003E303DE7020010000200010008000100F8
:1059000073B50E4611460022019290F83D200446E0
:10591000202A02D0022002B070BD46F2A810344AFC
:105920001268B2FBF0F0192242430192019A501E14
:1059300001903AB92023226384F83C2084F83D305A
:105940000320E8E7226890698507EFD494F83C00CB
:105950000128DFD0012084F83C0010680025C00732
:105960005EBF106840F001001060106820F4006015
:105970001060212084F83D00102084F83E0025644A
:1059800063851C4B6162E362638D66649BB2238511
:10599000F3B1606B184E10328662184EC562066312
:1059A0004563FFF779F9236828461A6842F4806254
:1059B0001A601A6842F480721A605A6884F83C507F
:1059C00042F440725A605A6842F400625A60A2E798
:1059D0001168184641F480611160116841F48071CA
:1059E0001160516884F83C3041F4E061516092E705
:1059F000880200200000FFFF676200083D62000887
:105A00002DE9F34704469A46884691460C9EFEF7D8
:105A1000CDFB94F83D300546202B03D0022002B088
:105A2000BDE8F0870090192301223E492046FFF788
:105A3000AEFC0028F2D194F83C30012BEED00123CB
:105A400084F83C30236800271A684146D20758BFC3
:105A50001A6820465CBF42F001021A601A6822F4FC
:105A600000621A60212384F83D30402384F83E30E0
:105A70000A9B27646362BDF82C30019563852A4B2D
:105A80000096E362638D4A4623855346FFF7D4FCB4
:105A900000282AD0236C84F83C70042B07D1012005
:105AA000BDE7FFF7A2FC20B1236C042B34D0032008
:105AB000B5E7616A27684B1C63620B78228D3B61F6
:105AC000638D501E013B9BB263857B6980B25B078F
:105AD00020850AD548B18B1C63624B78023A3B6142
:105AE000638D2285013B9BB26385238D2A46314617
:105AF0002046002BD5D1FFF798FD0028D4D122688D
:105B0000136843F400731360202384F83C0084F886
:105B10003D3084F83E0082E72268136843F4007346
:105B20001360BCE7020010000000FFFF2DE9F04702
:105B3000044686B09A460D469146109FFEF736FB06
:105B400094F83D300646202B04D00225284606B0A6
:105B5000BDE8F08700901923012281492046FFF714
:105B600016FC0028F1D194F83C30012BEDD0012334
:105B700084F83C3023684FF000081A682946D207A1
:105B800058BF1A6820465CBF42F001021A601A68CA
:105B900022F400621A60222384F83D30402384F806
:105BA0003E300E9BC4F840806362BDF83C300196E5
:105BB00063856C4B0097E362638D4A4623855346A9
:105BC000FFF78CFC054630B1236C84F83C80042B35
:105BD0003DD10125BAE7228D236892B902905A6916
:105BE00002929A690292029A1A6842F400721A604A
:105BF000202384F83D30002384F83E3084F83C3084
:105C0000A4E7012A25D11A6822F480621A6072B6CC
:105C1000236803905A6903929A690392039A1A6857
:105C200042F400721A6062B6DFF83C81238D002BCB
:105C3000DED0032B77D8012B27D1324639462046B8
:105C4000FFF7C6FC00283FD0236C202BC1D10325D1
:105C50007CE7022A1A680ED142F400621A6072B61A
:105C6000236804905A6904929A690492049A1A6803
:105C700022F48062D6E742F480621A6005905A6985
:105C800005929B690593059BCEE7022B00963B4648
:105C90004FF000024146204624D1FFF778FB002850
:105CA000D5D172B623681A6842F400721A60626A2B
:105CB0001B69511C61621370238D013B2385638D29
:105CC000013B9BB2638562B6636A5A1C62622268BA
:105CD00012691A70238D013B2385638D013B9BB2B2
:105CE0006385A3E7FFF753FB02460028AFD1216885
:105CF0000B6823F480630B6072B6636A2046591CFC
:105D00006162216809691970238D0096013B238522
:105D1000638D4146013B9BB263853B46FFF737FBF2
:105D20000028BFD093E7324639462046FFF750FCA3
:105D3000002889D1636A5A1C6262226812691A704B
:105D4000238D2268013B2385638D013B9BB26385D4
:105D500053695B077FF56AAF636A591C6162B7E7F5
:105D6000020010000000FFFF0400010070477047B0
:105D70000368F0B59D695C695A6890F83E108DB073
:105D8000C9B2102902D0402940F0618114F0011FEE
:105D900066D0910564D590F83E10402943D1016D3D
:105DA00000293BD1416C01F0FE011961944E9549E7
:105DB0002E402140002E00F0A681934D2540002D5D
:105DC00000F06D81560540F16A81002940F067813D
:105DD00090F83D20058D90F83E10D2B2C9B2C46A49
:105DE000002D40F01781212A40F01681042C00F08C
:105DF0007381082C00F0708114F5803F00F06C81F5
:105E00005A6822F4E0625A601123036380F83E501E
:105E1000202380F83D3005F01FFE18E1416C41F071
:105E20000101C9B2C1E70169B1F5804F05D190F810
:105E30003D102129416CF2D1B5E7016D31B9416CBA
:105E4000C91101F0060141F0F001AEE7016D012931
:105E5000ACD1416CC91101F0060141F0F101A4E798
:105E60006A49214019B1970501D5416CD9E76849C4
:105E7000214000299AD0960598D590F83E10C66A20
:105E8000D0F830E090F83D70C9B2222F40F0AF80DA
:105E9000076D47B9402906D1019759690191996960
:105EA0000191019982E7016D89B90769B7F5404F02
:105EB0000DD102915969029199690291029919686B
:105EC00041F480711960016D013101656EE7418D0A
:105ED00089B251B903915969039199690391039961
:105EE000196841F40071196019E0418D89B20129E6
:105EF00042D116F5803F1BD1196821F480611960E9
:105F0000596811F400610CD0196821F4806119609E
:105F1000002104915969049199690491049900211F
:105F2000D3E7059159690591996905910599D7E7D5
:105F3000042E15D0082E13D0BEF1120F10D0C16A56
:105F40000229196814BF21F4806141F4806119604D
:105F50000021069159690691996906910699DEE733
:105F6000196821F48061196000210791596907912E
:105F7000996907910799B3E7418D89B2022923D125
:105F8000C16A00260229196814D041F40061196021
:105F9000089659690891996908910899196821F436
:105FA0008061196059680905B9D5596841F4805173
:105FB0005960B4E741F48061196009965969099103
:105FC000996909910999EDE7196841F480611960AF
:105FD00059680F0542BF596841F48051596000214A
:105FE0000A9159690A9199690A910A9997E70021DA
:105FF0000B9159690B9199690B910B99D6E600BFEA
:1060000004001000040001008000010008000100ED
:1060100002000100212A03D0402918D1222A16D1DA
:10602000428D92B222B95A6822F480625A600EE020
:1060300090F83E20402A28D1026D82B9C26C012A14
:10604000826C06D1D2B21A61036D023303650DB0C2
:10605000F0BDC2F307221A61036D0133F6E7026D4A
:10606000012A02D1826CD2B2F5E7026D022AEED18A
:1060700090F83D20222A04D11A6842F480721A60F6
:10608000E5E790F83D20212AE1D1426A511C4162A6
:1060900012781A61438D013B9BB24385D7E70029F3
:1060A000D5D09505D3D5C16A90F83D20212ACED10F
:1060B000428D92B2002AE8D104290DD008290BD0D4
:1060C00011F5803F08D0596821F4E061596011232F
:1060D000036380F83E209BE65A6822F4E0625A602F
:1060E0001A6842F400721A6000232022036380F8C9
:1060F0003D2090F83E2080F83E30402A7FF48BAE61
:1061000005F0ACFCA3E74C4D2540002D46D05405CE
:1061100044D5002942D190F83D20222A97D1428DC2
:1061200092B2032A05D9426A1B69511C416213705D
:10613000B0E7023A012AC26A0DD8022A1A681DBFC6
:1061400022F480621A601A6842F4806218BF42F436
:1061500000621A6067E7022A1A6814BF22F480629C
:1061600042F480621A605A6822F4E0625A60426A1D
:106170001B69511C41621370438D013B9BB24385E7
:10618000202380F83D300023036390F83E2080F800
:106190003E30402A4DD105F067FC58E700293FF416
:1061A00056AF92057FF553AFC26A418D89B203297C
:1061B000416A0FD1042A04D0082A02D012F5803F88
:1061C00003D11A6822F480621A601B694A1C426279
:1061D0000B705FE7448DA4B2022CF6D1042A1FD0C5
:1061E000082A1DD012F5803F1AD0022A1A6814BF5F
:1061F00022F4806242F480621A605A6822F440728B
:106200005A601B694A1C42620B70438D013B9BB272
:106210004385436A5A1C4262026812691A70ABE7EE
:106220005A6822F440725A601A6842F400721A6086
:10623000E7E705F00FFC0AE740000100406A08B5F7
:106240000268136823F480631360002320224385CF
:1062500080F83D2080F83E30036C43F01003036467
:1062600005F0FEFB08BD406A08B590F83D2090F8A7
:106270003E10D2B2212AC9B2036803D0222A0CD11F
:1062800020290AD15A6822F400625A60002242850D
:106290005A6842F440725A6008BD1A6822F480625B
:1062A0001A601A6842F400721A605A6822F4805226
:1062B0005A605A6822F400625A6000234385036CD6
:1062C00013B105F0CDFB08BD202280F83D2090F8E9
:1062D0003E2080F83E30402A02D105F0C5FB08BDC3
:1062E00005F0B8FB08BD000090F83D3010B5293B23
:1062F000012B0446036839D800220263282280F863
:106300003D201A6822F400621A605A6812F4006292
:1063100054D05A68606B22F400625A6090F82130C1
:10632000012B394B31D04363FEF7F4FC50B12268A6
:10633000606B136823F001031360202384F83D3061
:10634000436B984794F83D30282B0ED1236C5B07A4
:106350000BD52E4B2022E36200232046236384F8D2
:106360003D2084F83E30FFF702FD10BD90F83D203F
:10637000602A05D05A6812055CBF202280F83D20B3
:106380000022226384F83E20BBE7A06B4363FEF744
:10639000C1FC0028D6D022685369580604D5636A28
:1063A0001269591C61621A702268A06B136823F08D
:1063B00001031360202384F83D30C1E794F83D10B9
:1063C000602914D1202184F83D1022645A695106B5
:1063D00004D5626A1B69511C6162137022682046F1
:1063E000136823F00103136005F03CFBAAE75A6928
:1063F000520604D5626A1B69511C61621370204603
:1064000005F02EFB9EE700BF4D6500080000FFFF72
:10641000F8B503684B4A5E69044616425D680CD0C5
:10642000E8050AD5226C42F0010222646FF4807202
:106430005A611A6842F400421A6016F4813F08D08B
:10644000E90506D5226C42F0020222646FF4007264
:106450005A6116F4823F36D0EA0534D594F83E707E
:10646000618D94F83D20202F89B2D2B2206B58D193
:10647000002956D102F0F701212903D0282A50D152
:1064800021284ED194F83D20E16AD2B2042901D0EE
:1064900008292CD1282A2AD12B4A2046E2625A68A0
:1064A00022F4E0625A606FF480625A611A6822F442
:1064B00080621A6000232022236384F83D2084F840
:1064C0003E30FFF754FC16F4843F09D0EB0507D5A6
:1064D0006FF40062236C43F00803236423685A615D
:1064E000236C73B32046BDE8F840FFF7FDBE212AB8
:1064F00023D115492046E1622263202284F83D2001
:10650000002284F83E205A6822F4E0625A606FF458
:1065100080625A611A6822F480621A60FFF726FCD2
:10652000D1E7226C42F00402226494F83E20102A43
:1065300002BF1A6842F400721A606FF480625A61F6
:10654000C1E7F8BD000101000000FFFF406A08B587
:106550000368416B1A6822F480621A600022428547
:106560004A63816B4A6390F83D1060294FF0200127
:1065700080F83D1080F83E2007D102641A6822F0AE
:1065800001021A6005F06EFA08BD1A6822F00102D5
:106590001A6005F065FA08BD38B50446D8B14CF666
:1065A000CC4203681A6045F255521A6042685A603C
:1065B00082689A60FDF7FAFD05462368D86818B925
:1065C0004AF6AA221A6038BDFDF7F0FD401B3028BC
:1065D000F3D9032038BD012038BD4AF6AA2203684A
:1065E00000201A607047000003682DE9F341DB07C3
:1065F000054610D42B689F075ED42B68190700F15D
:1066000095802B685A0700F1BF80EA69002A40F0A4
:106610002D81002014E0904C636803F00C03042BE0
:1066200007D0636803F00C03082B0CD16368DE030A
:1066300009D523689C03DDD56B68002BDAD10120D6
:1066400002B0BDE8F0816B68B3F5803F10D12368DC
:1066500043F480332360FDF7A9FD064623689803C1
:10666000C8D4FDF7A3FD801B6428F7D90320E7E712
:106670009BB9236823F480332360236823F48023A9
:106680002360FDF793FD064623689903B2D5FDF715
:106690008DFD801B6428F7D9E8E7B3F5A02F2368A8
:1066A00003D143F480232360D1E723F480332360B4
:1066B000236823F48023CDE7674C636813F00C0F45
:1066C00007D0636803F00C03082B10D16368DA036A
:1066D0000DD423689B0702D52B69012BAFD123680A
:1066E0006A6923F0F80343EAC203236085E72A6955
:1066F0005A4B6AB101221A60FDF758FD064623681D
:106700009F07ECD4FDF752FD801B0228F7D9ADE7B7
:106710001A60FDF74BFD0646236898077FF56DAFBD
:10672000FDF744FD801B0228F6D99FE7AA694A4C71
:106730004B4BDAB101221A60FDF738FD0646636A59
:106740009B070DD54FF4FA52464B1B68B3FBF2F38F
:10675000019300BF019B5A1E0192002BF9D150E713
:10676000FDF724FD801B0228E9D97FE71A60FDF7B9
:106770001DFD0646636A9F077FF543AFFDF716FDD3
:10678000801B0228F6D971E7334CE369D80024D482
:106790000127E36943F08053E361E36903F0805329
:1067A0000093009B304E3368D90518D5EB68012B58
:1067B00026D1236A43F001032362FDF7F7FC41F27F
:1067C00088368046236A9B073FD5002F3FF41DAFD4
:1067D000E36923F08053E36117E70027E2E73368BA
:1067E00043F480733360FDF7E1FC80463368DA05DB
:1067F000DCD4FDF7DBFCA0EB08006428F6D935E714
:10680000ABB9236A41F2883823F001032362236A7B
:1068100023F004032362FDF7C9FC0646236A9807A8
:10682000D3D5FDF7C3FC801B4045F7D91EE7052BE8
:10683000236A03D143F004032362BAE723F0010380
:106840002362236A23F00403B6E7FDF7AFFCA0EB55
:106850000800B042B6D909E70010024000004242E9
:10686000800442428802002000700040224C63688D
:1068700003F00C03082B3FF4E2AE00231F4E022A64
:1068800033602BD1FDF792FC0746236899011FD492
:106890002B6AB3F5803F05D16268A96822F4003203
:1068A0000A436260696A62680B4322F474121343FC
:1068B000636001233360FDF779FC054623689A0184
:1068C0003FF5A7AEFDF772FC401B0228F6D9CDE6D6
:1068D000FDF76CFCC01B0228D7D9C7E6FDF766FCA4
:1068E000054623689B017FF594AEFDF75FFC401BD6
:1068F0000228F6D9BAE600BF00100240600042420A
:1069000030B51A4B87B002AC03F110052246186867
:106910005968083303C2AB421446F7D101238DF8FE
:106920000430022312498DF805304B6803F00C0245
:10693000082A18D1C3F38342DB0348BF4B6806A87B
:10694000024448BFC3F3404312F8100C41BF06AAEB
:106950009B1813F8142C074B54BF074BB3FBF2F3EF
:10696000584307B030BD0348FBE700BFE8BE00084E
:106970000010024000127A0000093D004D4A2DE946
:10698000F0411368054603F007038B420E4628D3F7
:106990002A68910732D4D20738D4464A136803F0E4
:1069A00007039E4273D32A68434C12F0040F79D137
:1069B000130706D563682A6923F4605343EAC203C8
:1069C0006360FFF79DFF63683C4AC3F30313D35C26
:1069D000D8403B4B18600F2005F060F90020BDE85F
:1069E000F081136823F007030B431360136803F06F
:1069F00007039942CCD00120BDE8F0812E49A86858
:106A00004B6823F0F00303434B60C4E76A682A4CE9
:106A1000012A23681CD113F4003FECD0636841F2D3
:106A2000883823F0030313436360FDF7BFFB6B68F3
:106A30000746012B14D1636803F00C03042BACD080
:106A4000FDF7B4FBC01B4045F5D90320BDE8F0813C
:106A5000022A02D113F0007FDFE713F0020FDCE718
:106A6000022B0FD1636803F00C03082B95D0FDF7C0
:106A70009DFBC01B4045F5D9E7E7FDF797FBC01B21
:106A80004045E2D8636813F00C0FF6D185E7136830
:106A900023F0070333431360136803F007039E4298
:106AA000A9D180E76368E96823F4E0630B4363607E
:106AB0007EE700BF0020024000100240E5EF000822
:106AC00088020020014B1868704700BF8802002030
:106AD000044B054A5B68C3F30223D35C034A106886
:106AE000D840704700100240F5EF000888020020EF
:106AF000044B054A5B68C3F3C223D35C034A1068A6
:106B0000D840704700100240F5EF000888020020CE
:106B10000F2303600B4B5A6802F0030242605A686D
:106B200002F0F00282605A6802F4E062C2605B68C0
:106B3000DB0803F4E0630361034B1B6803F0070306
:106B40000B607047001002400020024003682DE9EE
:106B5000F341D907054620D5354CE369DA0032D434
:106B60000127E36943F08053E361E36903F0805355
:106B70000193019B2F4E3368DB0526D5236A13F45E
:106B8000407336D1236A6A6823F440731343236247
:106B90001FB1E36923F08053E3612868830706D5BA
:106BA000234AA968536823F440430B43536010F011
:106BB00010001BD01E4AE9685368002023F48003AC
:106BC0000B43536012E00027D4E7336843F480732B
:106BD0003360FDF7EBFA80463368D805CED4FDF775
:106BE000E5FAA0EB08006428F6D9032002B0BDE85E
:106BF000F0816A6802F440729342C3D001200E4AC9
:106C0000236A1060002023F4407110602162D907CC
:106C1000B8D5FDF7CBFA41F288380646236A9A07C1
:106C2000B0D4FDF7C3FA801B4045F7D9DDE700BFBC
:106C300000100240007000404004424270B504461B
:106C4000354B86B002AD03F110062A461868596824
:106C5000083303C2B3421546F7D101238DF804303F
:106C600002239C428DF8053047D0102C17D0012C00
:106C70004FD140F20231294A136A1940B1F5817FA0
:106C800044D003F44073B3F5007F2DD149F6404062
:106C9000536A13F0020F08BF002006B070BD1F4BEF
:106CA0005968186810F08070F7D0C1F3834206A8C5
:106CB000024412F8100CCA0341BF5A6806A9C2F375
:106CC0004042521844BF12F8141C154A5B684CBF6E
:106CD000B2FBF1F2134A5B0202FB00F0DDD40323A6
:106CE0004000B0FBF3F0D8E7B3F5407F11D1136853
:106CF0004FF2244013F4003FCDE7FFF7F9FE074BB6
:106D00005B68C3F3813301335B00EAE74FF4004073
:106D1000C3E70020C1E700BFF8BE00080010024032
:106D200000127A0000093D00036A70B523F00103E8
:106D30000362036A446882690D6822F073022A4381
:106D40008D6823F002032B430A4DA8420BD1CD6876
:106D500023F008032B438E694D6924F440743543B6
:106D600023F004032C43446082614A684263036257
:106D700070BD00BF002C0140036A70B523F480731E
:106D80000362036A4468C2690D6822F073022A43F1
:106D90008D6823F4007343EA05230B4DA8420DD1FF
:106DA000CD6823F4006343EA05238E694D6924F41A
:106DB0004054354323F4806344EA05144460C261BF
:106DC0004A68C263036270BD002C0140036A30B59B
:106DD00023F480530362036A4468C2690D6822F495
:106DE000E64242EA05228D6823F4005343EA053364
:106DF000064DA84202BF4D6924F4804444EA85143C
:106E00004460C2614A680264036230BD002C0140E4
:106E100003680020DA6842F00102DA601A6842F082
:106E200001021A6070477047704790F83C3070B5A7
:106E3000012B4FF002031CD0012280F83D30036883
:106E400080F83C209A6822F47F4222F077029A6010
:106E50000A68402A79D019D8102A00F093800AD8FD
:106E6000002A00F08980012380F83D30002380F85B
:106E70003C30184670BD202A00F08A80302AF2D1BA
:106E80009A6822F0700242F0370236E0702A36D05B
:106E90001BD8502A42D0602AE5D11C6A4D6824F0E4
:106EA0001004CE681C6299691A6A21F4704122F0BC
:106EB000A00242EA051241EA063199611A629A6813
:106EC00022F0700242F0670217E0B2F5805F11D045
:106ED000B2F5005FC7D18A684D689C68C9682A43CB
:106EE00024F47F4442EA012222439A609A6842F4E1
:106EF000804202E09A6822F007029A60B3E78A684B
:106F00004D689C68C9682A4324F47F4442EA012200
:106F100022439A609A6842F07702EEE74C68CE68A6
:106F2000196A1D6A21F00A0125F001051D629A699E
:106F3000214322F0F00242EA06129A6119629A682D
:106F400022F0700242F05702D7E74C68CE68196A07
:106F50001D6A21F00A0125F001051D629A6921438D
:106F600022F0F00242EA06129A6119629A6822F04F
:106F7000700242F04702C0E79A6822F0700242F0C5
:106F80000702BAE79A6822F0700242F01702B4E7EB
:106F90009A6822F0700242F02702AEE7704770470D
:106FA0007047036810B51A69044691070ED5DA6870
:106FB00092070BD56FF002021A6101229B690277DA
:106FC0009B0777D0FFF7EBFF0023237723681A692D
:106FD000500710D5DA6851070DD56FF004021A6119
:106FE00002229B69227713F4407F204668D0FFF786
:106FF000D6FF0023237723681A6912070FD5DA68B2
:1070000010070CD56FF008021A610422DB692277A1
:10701000990720465AD0FFF7C2FF00232377236841
:107020001A69D20610D5DA68D0060DD56FF01002B5
:107030001A610822DB69227713F4407F20464BD087
:10704000FFF7ADFF0023237723681A69D10708D51E
:10705000DA68D20705D56FF0010220461A6103F005
:10706000A1FC23681A69100608D5DA68110605D54F
:107070006FF0800220461A6100F021FA23681A6935
:10708000520608D5DA68500605D56FF04002204652
:107090001A61FFF785FF23681A69910622D5DA681D
:1070A00092061FD56FF020022046BDE810401A61FD
:1070B00000F004BAFFF772FF204603F0ABFC83E751
:1070C000FFF76CFF204603F0A5FC92E7FFF766FF91
:1070D000204603F09FFCA0E7FFF760FF204603F087
:1070E00099FCAFE710BD00001A4A036890420AD02D
:1070F000B0F1804F07D0A2F59432904203D002F550
:107100008062904215D14A6823F070031343114AFC
:1071100090420AD0B0F1804F07D0A2F5943290424D
:1071200003D002F58062904203D1CA6823F4407311
:1071300013434A6923F08003134303608B68C362DF
:107140000B688362034B984204BF0B6903630123FE
:1071500043617047002C014010B50446A0B190F87F
:107160003D3003F0FF021BB980F83C2004F072FDB3
:107170000223206884F83D30211DFFF7B5FF01236D
:10718000002084F83D3010BD012010BD10B504462C
:10719000A0B190F83D3003F0FF021BB980F83C200D
:1071A000FFF741FE0223206884F83D30211DFFF7E0
:1071B0009BFF0123002084F83D3010BD012010BD4D
:1071C00010B50446A0B190F83D3003F0FF021BB9A2
:1071D00080F83C20FFF728FE0223206884F83D3029
:1071E000211DFFF781FF0123002084F83D3010BDF1
:1071F000012010BD036A70B523F010030362036A17
:10720000446882690D6822F4E64242EA05228D68EC
:1072100023F0200343EA05130B4DA8420DD1CD689E
:1072200023F0800343EA05138E694D6924F440641A
:10723000354323F0400344EA8504446082614A6890
:107240008263036270BD00BF002C014038B590F826
:107250003C300446012B4FF0020018D0012384F883
:107260003D0084F83C301D460C2A0BD8DFE802F0C4
:10727000070A0A0A100A0A0A140A0A0A18002068E9
:10728000FFF752FD002084F83D5084F83C0038BDE3
:107290002068FFF7AFFFF5E72068FFF76DFDF1E726
:1072A0002068FFF793FDEDE738B590F83C300446D1
:1072B000012B4FF0020025D0012384F83D0084F813
:1072C0003C300C2A18D8DFE802F0071717171E17F2
:1072D00017172F17171740002068FFF725FD2368A1
:1072E00009699A6942F008029A619A6922F00402D7
:1072F0009A619A690A439A610123002084F83D301B
:1073000084F83C0038BD2068FFF774FF23680969E2
:107310009A6942F400629A619A6922F480629A61E1
:107320009A6942EA0122E6E72068FFF725FD236813
:107330000969DA6942F00802DA61DA6922F00402C6
:10734000DA61DA690A43DA61D6E72068FFF73EFDC1
:1073500023680969DA6942F40062DA61DA6922F4C1
:107360008062DA61DA6942EA0122ECE710B50124B1
:10737000036A8C4023EA04030362036A8A401A43C7
:10738000026210BD10B5044601220068FFF7EEFF4F
:107390002368064A0020934202BF5A6C42F400421E
:1073A0005A641A6842F001021A6010BD002C0140B4
:1073B00010B5044600220068FFF7D8FF2368124A80
:1073C00093420DD141F21112196A114208D140F2D3
:1073D0004442196A114202BF5A6C22F400425A64B4
:1073E00041F21112196A114208D140F24442196A5D
:1073F000114202BF1A6822F001021A600123002024
:1074000084F83D3010BD00BF002C014010B504468B
:107410000C290DD8DFE801F0070C0C0C1E0C0C0C2D
:10742000230C0C0C28000268D36843F00203D360DD
:1074300020680122FFF79AFF23680E4A002093423A
:1074400002BF5A6C42F400425A641A6842F00102C8
:107450001A6010BD0268D36843F00403E7E70268CE
:10746000D36843F00803E2E70268D36843F01003EF
:10747000DDE700BF002C014090F83C3010B5012B37
:107480004FF0020318D080F83D3003680C685A684A
:10749000496822F070025A605A6822435A609A681A
:1074A00022F080029A609A680A439A60012380F869
:1074B0003D30002380F83C30184610BD70477047BF
:1074C00008B500F08DFE002008BD30B5B0F90840C9
:1074D00085B0842C08BF0024028A18BF03340B46F1
:1074E00090E8220003A801900094284600F0A0FD37
:1074F000012814BF0020039805B030BD08B50A2349
:10750000B0FBF3F0002808BF012000F0BDFF002011
:1075100008BD08B501F0DAF8012803D0BDE808403D
:1075200000F0E8B808BD00F1080343604FF0FF32F7
:10753000C36003610023826003607047002303611E
:10754000704743689A684B608A609A685160996096
:10755000036808610133036070470A6830B5531C43
:107560000AD103695A684A6091608B605960036868
:1075700008610133036030BD00F108035C682568D1
:10758000AA42EFD32346F9E74168826803698A601B
:10759000826851605968884208BF5A6000220261BF
:1075A00018680138186070470A4B1B68013308D00F
:1075B0004FF0500383F31188BFF36F8FBFF34F8FEA
:1075C000FEE74FF0500383F31188BFF36F8FBFF3D3
:1075D0004F8FFEE70000002006480068006880F337
:1075E000088862B661B6BFF34F8FBFF36F8F00DFBD
:1075F00000BF000008ED00E04FF0807340F8043C4D
:10760000054B21F0010140F8081C40F80C3C40F803
:10761000202C4038704700BFA9750008000000000A
:10762000074B19680868B0E8F00F80F30988BFF3CA
:107630006F8F4FF0000080F311884EF00D0E7047F1
:10764000CC2A00204FF0500383F31188BFF36F8FD3
:10765000BFF34F8F0A4A13680133012B13600DD11A
:10766000084B1B6813F0FF0F08D04FF0500383F353
:107670001188BFF36F8FBFF34F8FFEE7704700BFD6
:107680000000002004ED00E0084A136843B94FF001
:10769000500383F31188BFF36F8FBFF34F8FFEE763
:1076A000013B13600BB983F3118870470000002081
:1076B000EFF30980BFF36F8F0D4B1A6820E9F00FCD
:1076C00010602DE908404FF0500080F3118800F061
:1076D000FFFE4FF0000080F31188BDE808401968F4
:1076E0000868B0E8F00F80F30988BFF36F8F704728
:1076F000CC2A002008B54FF0500383F31188BFF364
:107700006F8FBFF34F8F00F0B5FD18B14FF080526F
:10771000024B1A60002383F3118808BD04ED00E0DA
:107720006422054B1B68B3FBF2F3044A013B136070
:107730000722034B1A6070478802002014E000E023
:1077400010E000E013B51F4B00211A78D2B201926D
:10775000FF221A701B781C4ADBB28DF803309DF8AB
:10776000033003F0500313700722184B1A609DF882
:107770000300541E00061CD401B11A601A681202DC
:1077800002F4E0621A60019B0E4ADBB21370104BE8
:107790001A6842F470021A601A6842F070421A6065
:1077A000FFF7BEFF00220B4B1A60FFF715FFFFF734
:1077B000FBFE9DF8032001215200D2B28DF8032078
:1077C0002246D4E700E400E0AC020020B002002032
:1077D00020ED00E000000020EFF305830F2B0ED911
:1077E000104A9B5C104A12789A4208D94FF0500315
:1077F00083F31188BFF36F8FBFF34F8FFEE70B4BFF
:107800000B4A1B68126803F4E063934208D94FF0F7
:10781000500383F31188BFF36F8FBFF34F8FFEE7E1
:10782000704700BFF0E300E0AC0200200CED00E088
:10783000B002002010B50F4B1A68824218D35C6862
:107840001919884201BF41681846091959604468EE
:1078500001198A4207D1084909688A421FBF516845
:107860001268091941609842026018BF186010BD83
:107870001346E1E7C42A0020B40200202DE9F041BC
:10788000044600F0E9FC3E493E4D0B680BBB3E4A06
:1078900056071DBFD01D20F0070002F520534FF4FE
:1078A00020531CBF02461B1A00201344374E083BCE
:1078B00023F0070370603260586018600B60981AFC
:1078C0001360334B50601860324B18604FF0004328
:1078D0002B602F68274216D1002C40D004F10803FA
:1078E00058071CBF23F00703083363B1294A166801
:1078F0009046B34207D8254A15686868834204D881
:1079000009688D4207D1002429E02C68002CF7D0AB
:107910002A462546F1E7296814681160C21A102A20
:107920000FD9E818410708D04FF0500383F31188AE
:10793000BFF36F8FBFF34F8FFEE742606B60FFF7BF
:1079400079FF6B681249F61A1F4300230868C8F8CC
:107950000060864238BF0E6008346F602B6000F014
:107960001BFD630708D04FF0500383F31188BFF36A
:107970006F8FBFF34F8FFEE72046BDE8F08100BF59
:10798000B4020020B82A0020B8020020C42A002037
:10799000C02A0020BC2A002010B5044670B3184A43
:1079A00050F8043C1268134208D14FF0500383F39F
:1079B0001188BFF36F8FBFF34F8FFEE750F8081C9D
:1079C00041B14FF0500383F31188BFF36F8FBFF3C2
:1079D0004F8FFEE723EA020340F8043C00F03CFC32
:1079E000084A54F8043C1168A4F108000B441360E1
:1079F000FFF720FFBDE8104000F0CEBC10BD00BF77
:107A0000B82A0020BC2A0020014B1868704700BF2C
:107A1000BC2A002070B51546026C0446866B42B93C
:107A200005689DB9406800F0A9FE65600136A6634F
:107A300070BD6DB9806804F037FAA368226C1344F6
:107A40006268A360934201D32368A3600020EDE73E
:107A5000C06804F029FA236CE2685B4221681A448A
:107A60008A42E2603EBF62689B18E360022DEDD15E
:107A70000EB1013EEAE73046D8E703461A6C10B46F
:107A8000084662B1D9685C681144A142D96028BF38
:107A9000196810BC28BFD960D96804F005BA10BCB9
:107AA000704770B50446FFF7CDFD94F8455004F1DA
:107AB00024066DB2002D14DCFF2384F84530FFF757
:107AC000E3FDFFF7BFFD94F8445004F110066DB2DA
:107AD000002D12DCFF2384F84430BDE87040FFF72E
:107AE000D3BD636A002BE7D0304600F043FD08B1F8
:107AF00000F0D0FD013D6DB2DCE72369002BE9D039
:107B0000304600F037FD08B100F0C4FD013D6DB214
:107B1000DEE7000038B50D46044640B94FF050038B
:107B200083F31188BFF36F8FBFF34F8FFEE7FFF72B
:107B300089FD206CE36B22684343D1181B1A134460
:107B40006160E3600021FF23A163A26084F84430F8
:107B500084F8453095B9236963B104F1100000F051
:107B600009FD38B14FF08052094B1A60BFF34F8FB7
:107B7000BFF36F8FFFF788FD012038BD04F11000BF
:107B8000FFF7D1FC04F12400FFF7CDFCF2E700BFC2
:107B900004ED00E070B50D46064640B94FF05003C5
:107BA00083F31188BFF36F8FBFF34F8FFEE7484316
:107BB0004830FFF763FE044638B145B92060E663FC
:107BC000256401212046FFF7A5FF204670BD00F186
:107BD00048030360F3E700002DE9FF47894601925F
:107BE0001F46044640B94FF0500383F31188BFF39A
:107BF0006F8FBFF34F8FFEE7002940F08880036C42
:107C0000002B00F084804FF0500383F31188BFF302
:107C10006F8FBFF34F8FFEE7019E002E00F0828032
:107C20004FF0500383F31188BFF36F8FBFF34F8F73
:107C3000FEE7019D1DB9FFF727FD002058E016B9AA
:107C400002A800F0D9FCFFF71FFD00F005FBFFF7CD
:107C5000F9FC94F84430FF2B08BF84F8448094F872
:107C60004530FF2B08BF84F84580FFF70DFD01A9C3
:107C700002A800F0D7FC002843D1FFF7E3FCA66B75
:107C8000E56BFFF701FDAE4235D1019904F110001B
:107C900000F058FC2046FFF704FF00F07DFB38B9E8
:107CA0004FF08053CAF80030BFF34F8FBFF36F8F90
:107CB0000126FFF7C7FCA26BE36B9A4201D3022FA8
:107CC000B7D13A4649462046FFF7A4FE636A1BB186
:107CD00004F1240000F04EFC38B14FF08052184BF4
:107CE0001A60BFF34F8FBFF36F8FFFF7CDFC0120FA
:107CF00004B0BDE8F0872046FFF7D3FE00F04CFB50
:107D0000D6E72046FFF7CDFE00F046FB95E7022FB1
:107D100002D1E36B012B0AD100F0D8FC00283FF41C
:107D20007BAF00264FF00008DFF814A0C1E74FF04A
:107D3000500383F31188BFF36F8FBFF34F8FFEE7BC
:107D400004ED00E070B50D46044640B94FF0500315
:107D500083F31188BFF36F8FBFF34F8FFEE7036C80
:107D600043B14FF0500383F31188BFF36F8FBFF31C
:107D70004F8FFEE703680BB9436873BBFFF72CFD19
:107D8000EFF311864FF0500383F31188BFF36F8F29
:107D9000BFF34F8FA26BE36B9A4201D3002014E034
:107DA00094F8453001325BB2A2635A1C10D1636A69
:107DB0000BB9012009E004F1240000F0DBFB0028EE
:107DC000F7D0002DF5D00120286086F3118870BD12
:107DD00001335BB284F84530EBE74FF0500383F397
:107DE0001188BFF36F8FBFF34F8FFEE72DE9FF4779
:107DF000884601929946044640B94FF0500383F3F8
:107E00001188BFF36F8FBFF34F8FFEE7002940F05B
:107E1000A580036C002B00F0A1804FF0500383F38A
:107E20001188BFF36F8FBFF34F8FFEE7019E002EC7
:107E300000F09A804FF0500383F31188BFF36F8FE7
:107E4000BFF34F8FFEE7636AE660002B6DD004F14D
:107E500024005FE0019D1DB9FFF716FC284667E08E
:107E600016B902A800F0C8FBFFF70EFC00F0F4F909
:107E7000FFF7E8FB94F84430FF2B08BF84F8447008
:107E800094F84530FF2B08BF84F84570FFF7FCFBE2
:107E900001A902A800F0C6FB002852D1FFF7D2FBCF
:107EA000A56BFFF7F1FB002D45D1236833B9FFF730
:107EB000C9FB606800F01AFCFFF7E6FB019904F1CA
:107EC000240000F03FFB2046FFF7EBFD00F064FAD2
:107ED00038B94FF08053CAF80030BFF34F8FBFF36B
:107EE0006F8F0126FFF7AEFBA56B002DB2D0414688
:107EF0002046E668FFF7C1FDB9F1000FA3D1236862
:107F0000013DA56313B900F089FC6060236963B18A
:107F100004F1100000F02EFB38B14FF08052144BEA
:107F20001A60BFF34F8FBFF36F8FFFF7ADFB0120D8
:107F300004B0BDE8F0872046FFF7B3FD00F02CFA4F
:107F4000CFE72046FFF7ADFD00F026FAFFF77AFBFA
:107F5000A56BFFF799FB002DC3D17FE700F0B6FBBF
:107F600000283FF463AF00260027DFF804A0B9E73C
:107F700004ED00E04FF080520549064B08680128E7
:107F8000FDD91A60BFF34F8FBFF36F8FF6E700BFC5
:107F9000D82A002004ED00E0064A13681968064B51
:107FA00019B94FF0FF321A6070471268D268D26870
:107FB0005268F8E7D02A0020682B002070B5164BD5
:107FC000164E1D68044630680430FFF7DDFA33466C
:107FD00040B931681248CE6A01210268B14022EAF4
:107FE000010202602C441A68A542546007D9BDE81A
:107FF00070400C4A106819680431FFF7AEBA0A4A9B
:10800000106819680431FFF7A8FA084B1A689442FF
:1080100038BF1C6070BD00BF882B0020CC2A002018
:10802000382B0020D42A0020D02A0020682B0020E2
:108030002DE9F84F4FEA820A804650460D46994690
:108040000B9EFFF71BFC0746002800F09C805C207D
:10805000FFF714FC0446002800F0928052460763A4
:10806000A521384603F02BFF236BAAF1040A9A449A
:108070002AF0070A6B1E04F134021735597802F80A
:10808000011B13F8011F09B1AB42F7D10A9D4FF054
:10809000000B032D28BF0325271DE562E564384644
:1080A00084F84BB0C4F850B0FFF748FAC5F10405A6
:1080B00004F11800FFF742FAC4F854B02461A56136
:1080C000646284F858B04A4641465046FFF794FA35
:1080D000206006B13460FFF7B5FA324B324E1A68B1
:1080E000DFF8F48001321A603268002A4ED1346021
:1080F0001B68012B1CD12D48FFF715FA2C48FFF700
:1081000012FADFF8D8902B48FFF70DFA2A4D2B48CA
:10811000FFF709FA4846FFF706FA2846FFF703FA81
:108120002748FFF700FA274BC3F80090264B1D6045
:108130000125264A26491368086801331360E26A5C
:1081400005FA02F3034314200B60184B394600FB79
:108150000230FFF7F6F9FFF797FAD8F8003063B16D
:108160003368DA6AE36A9A4207D24FF08052194BB9
:108170001A60BFF34F8FBFF36F8F2846BDE8F88FAB
:108180003846FFF709FC4FF0FF35F6E7D8F8003026
:10819000002BCDD13368DA6AE36A9A4298BF346023
:1081A000C6E700BF282B0020CC2A0020D82A0020B8
:1081B000EC2A0020002B0020502B0020142B002044
:1081C000702B0020D02A0020D42A0020342B00203D
:1081D000382B002004ED00E0842B00203C2B0020F5
:1081E00013B50024164B009401934FF4807223467C
:1081F00014491548FFF71CFF012814D14FF0500314
:1082000083F31188BFF36F8FBFF34F8F4FF0FF32AF
:108210000E4B1A600E4B18600E4B1C6002B0BDE88E
:108220001040FFF78FBA013008D14FF0500383F3AD
:108230001188BFF36F8FBFF34F8FFEE702B010BD01
:10824000642B002044BF0008757F0008682B0020C5
:10825000842B0020882B0020024A1368013313600E
:10826000704700BF302B0020014B1868704700BFDB
:10827000882B00202DE9F84F3C4B1B68002B53D175
:108280003B4B1C6801341C60BCB93A4B1A6812683D
:1082900042B14FF0500383F31188BFF36F8FBFF3E8
:1082A0004F8FFEE7344A1968106818601160334A2E
:1082B000136801331360FFF76FFE314D4FF0000B71
:1082C0002B68304F9C423ED3DFF8A880DFF8C49083
:1082D000D8F80020126872BB4FF0FF322A6032E0FB
:1082E00006F1040A5046FFF74FF9B16A19B106F1D9
:1082F0001800FFF749F901224FF0140EF06AD9F87F
:10830000003002FA00F119431F4BC9F800100EFBB0
:1083100000305146FFF715F93868F16AC26A914298
:1083200028BF4FF0010BD3E7184A4FF0000B13683A
:108330000133136011E0D8F80020D268D668716864
:108340008C42CDD229603A680F4BD16A14224A433D
:108350009A58022A28BF4FF0010B0D4A1268002AD2
:1083600018BF4FF0010B5846BDE8F88F302B0020A6
:10837000882B0020D02A0020D42A00206C2B00203B
:10838000682B0020CC2A0020D82A00202C2B00208B
:108390008C2B0020382B00202DE9F843314C23682A
:1083A00043B94FF0500383F31188BFF36F8FBFF3CE
:1083B0004F8FFEE7FFF746F92368013B23602468EF
:1083C0002CB10024FFF760F92046BDE8F883264B66
:1083D0001B68002BF5D0DFF8A890244FDFF8A480AD
:1083E000D9F80030E3B90CB1FFF7D6FD204D2C6869
:1083F00044B101271F4EFFF73DFF00B13760013C3C
:10840000F9D12C601B4B1B68002BDAD04FF0805247
:10841000194B1A60BFF34F8FBFF36F8F0124D1E761
:10842000D9F80C300125DC68261D04F11800FFF78F
:10843000ABF83046FFF7A8F81420E26A396805FA6D
:1084400002F30B4300FB028031463B60FFF779F8F3
:108450000A4BE26A1B68DB6A9A4224BF054B1D6027
:10846000BEE700BF302B0020282B0020382B002037
:108470002C2B00208C2B002004ED00E0CC2A0020C7
:10848000702B0020D82A002008B540B94FF0805248
:108490000D4B1A60BFF34F8FBFF36F8F08BD0B4BAF
:1084A0001B6843B14FF0500383F31188BFF36F8F04
:1084B000BFF34F8FFEE7FFF7CFFEFFF77FFDFFF71C
:1084C0006BFF0028E2D008BD04ED00E0302B002057
:1084D000174B10B51A68174B12B101221A6010BD64
:1084E0001A60154B1B68B3FA83F31422DBB2C3F195
:1084F0001F035A4311498C58881844B94FF0500350
:1085000083F31188BFF36F8FBFF34F8FFEE744688B
:10851000083264680A44944208BF6268446008BF35
:108520004260142202FB03135B68DA68044BD5E750
:10853000302B00208C2B0020382B0020D82A002044
:10854000CC2A002010B50C4640B94FF0500383F3FD
:108550001188BFF36F8FBFF34F8FFEE7044B19688D
:108560001831FEF7FAFF2046BDE81040FFF726BDA0
:10857000CC2A002038B5C368DC6844B94FF05003FA
:1085800083F31188BFF36F8FBFF34F8FFEE704F1C2
:1085900018052846FEF7F8FF114B1B68E3B9251DA7
:1085A0002846FEF7F1FF01230E49E26A086893406E
:1085B000034314200B6029460B4B00FB0230FEF7EF
:1085C000C0FF0A4BE26A1B68DB6A9A4285BF012042
:1085D000074B0020186038BD29460648EFE700BF6A
:1085E000302B0020382B0020D82A0020CC2A002055
:1085F0008C2B0020702B002040B94FF0500383F3E8
:108600001188BFF36F8FBFF34F8FFEE7034B1B68DB
:108610000360034B1B684360704700BF6C2B002056
:10862000882B002038B50D46044640B94FF0500362
:1086300083F31188BFF36F8FBFF34F8FFEE741B90C
:108640004FF0500383F31188BFF36F8FBFF34F8F49
:10865000FEE7FEF7F7FF0D4B226819680C4B1B680D
:108660009A42626801D091420ED22B68881A9842D1
:108670000AD25B1A134420462B60FFF7BDFF00248B
:10868000FFF702F8204638BD0124F9E7882B0020C7
:108690006C2B00200122014B1A6070478C2B0020AC
:1086A00008B9064B1868026B1346981A13F8011B99
:1086B000A529FAD0C0F38F00704700BFCC2A002054
:1086C000014B1868704700BFCC2A0020054B1B687F
:1086D00033B1054B1B68002B0CBF022000207047F4
:1086E00001207047842B0020302B00202DE9F04121
:1086F0000446002839D01E4DC36A2A68D26A9342C4
:1087000033D2142782691B4E002AA8BF2A6807FBB0
:108710000363A2BFD26AC2F10402826142699A4233
:1087200020D100F104084046FEF72EFF124A48B956
:10873000E06A4743F3592BB901211368814023EACA
:10874000010313602B681168D86A012383400B432F
:1087500013601423E062414603FB0060BDE8F04172
:10876000FEF7EFBE2B68DB6AC362BDE8F08100BF95
:10877000CC2A0020D82A0020382B0020F8B5044647
:1087800008B90020F8BD224B1B68984208D04FF072
:10879000500383F31188BFF36F8FBFF34F8FFEE752
:1087A000036D43B94FF0500383F31188BFF36F8F0C
:1087B000BFF34F8FFEE7C16AC26C013B9142036574
:1087C000DFD0002BDDD1051D2846FEF7DDFE114E62
:1087D000114A50B91421E76A794373582BB9012023
:1087E0001368B84023EA00031360E36CC3F104018B
:1087F000E362A1610124116804FA03F008431060E8
:108800001420294600FB0360FEF79BFE2046F8BDBE
:10881000CC2A0020D82A0020382B0020044B1A68CC
:108820001AB119680A6D01320A651868704700BFED
:10883000CC2A002070B5164C06460D46FEF702FF06
:1088400023685B6D7BB90122236883F8582055B1FA
:108850002846FFF7B3FB4FF080520E4B1A60BFF370
:108860004F8FBFF36F8FFEF70FFFFEF7EBFE23680E
:108870005D6D1DB123684EB100225A650022236848
:1088800083F85820FEF700FF284670BD6A1EF4E703
:10889000CC2A002004ED00E02DE9F0410E4604460C
:1088A00040B94FF0500383F31188BFF36F8FBFF3CC
:1088B0004F8FFEE7FEF790FFEFF311874FF0500365
:1088C00083F31188BFF36F8FBFF34F8F022394F8A8
:1088D000585084F85830636DEDB20133012D636553
:1088E00028D1A36A43B14FF0500383F31188BFF33B
:1088F0006F8FBFF34F8FFEE7144B1B68F3B904F182
:1089000004084046FEF740FE114A1420E36A11684D
:108910009D400D43414615600E4A00FB0320FEF7C3
:1089200010FE0D4BE26A1B68DB6A9A4202D90123F2
:1089300046B1336087F31188BDE8F08104F1180176
:108940000648ECE7064A1360F4E700BF302B00202E
:10895000382B0020D82A0020CC2A0020702B0020A1
:108960008C2B0020BFF34F8F0549064BCA6802F4D9
:10897000E0621343CB60BFF34F8F00BFFDE700BF42
:1089800000ED00E00400FA05002307B52022019362
:108990000B4B1B6883F83D200A4B186860B101A996
:1089A000FFF7D0F9019B3BB14FF08052064B1A60A4
:1089B000BFF34F8FBFF36F8F03B05DF804FB00BFB1
:1089C000942B0020902B002004ED00E02DE9FF47C0
:1089D0001B4C064620680F4690469946BDF830A0CD
:1089E000184D68B941F288338DE800060293286873
:1089F00013460A463146FDF799F804B0BDE8F08702
:108A0000002341F288321946FFF7F0F901280CD112
:108A100041F288338DE8000602933A4643463146D8
:108A20002868FDF783F8034608B1FFF79BFF02466D
:108A30000146206804B0BDE8F047FFF7CDB800BF9D
:108A4000902B0020942B00201FB5012203AB009235
:108A5000FFF7BCFF9DF80C0005B05DF804FB0000BB
:108A60002DE9FF471B4C064620680F469046994665
:108A7000BDF830A0184D68B941F288338DE8000682
:108A80000293286813460A463146FCF7B9FF04B042
:108A9000BDE8F087002341F288321946FFF7A6F9B6
:108AA00001280CD141F288338DE8000602933A4642
:108AB000434631462868FCF7A3FF034608B1FFF799
:108AC00051FF02460146206804B0BDE8F047FFF7B9
:108AD00083B800BF902B0020942B00201FB504AB5F
:108AE00003F8012D01220092FFF7BAFF05B05DF8EF
:108AF00004FB0000124BF7B5054618680E461746F2
:108B0000104C50B941F288332068009313460A464E
:108B10002946FCF71FFE03B0F0BD002341F2883266
:108B20001946FFF763F9012807D13B46324629462B
:108B30002068FCF7E5FE0028EDD0FFF713FF00BF2B
:108B4000902B0020942B002038B50024054D2B19C4
:108B5000295D5A7832200234FFF7C0FF182CF6D175
:108B600038BD00BF49BF00087FB5062306460D4645
:108B700014460093012202ABA8213220FFF726FF02
:108B80009DF809209DF8083043EA022333809DF8C0
:108B90000B209DF80A3043EA02232B809DF80D201C
:108BA0009DF80C3043EA0223238004B070BD00001E
:108BB00038B500222B213A20FFF790FF40222B21CD
:108BC0003A20FFF78BFF0220FBF7F6FA0024054D51
:108BD0002B195A7919793A200234FFF77FFF162CA6
:108BE000F6D138BD61BF000808B510213A20FFF763
:108BF0002BFF03064CBFC0F34100032008BD7FB527
:108C000014460623012206460D460093114602AB88
:108C10003A20FFF7DBFE9DF808209DF8093043EA73
:108C2000022333809DF80A209DF80B3043EA02238B
:108C30002B809DF80C209DF80D3043EA0223238001
:108C400004B070BD002238B51D4B1E491A801E4B62
:108C50001E4C1A801E4B19600C211E4B19701E4BA6
:108C60001E491A701E4B0B601E4903F1600008601C
:108C700010201D49113B08701C491D460A70012235
:108C800022701B4A101852F8041B824243F8041B3E
:108C9000F9D1127832201A70FBF78EFA4FF40042A5
:108CA000144B32201A61FBF787FA322212497820DE
:108CB000FFF720FF01232370AF236B7038BD00BF87
:108CC000882C00203CC10008862C0020852C002028
:108CD0009C2B00208A2C0020842C00207C2C00203F
:108CE000B12B0020802C0020982B00207A2C002013
:108CF0002BC10008000801400400002038B5124DC7
:108D000004462A78824219D0104BC0B1C822DA72C8
:108D1000A122DA740D4932227820FFF7EBFE002CF5
:108D200014BF002220220A4B2C705A7114BF5F22FC
:108D30007F22DA7114BFC822C0225A7238BDC02205
:108D4000DA72A022E5E700BF842C00200400002096
:108D5000A02B002001280A490A4A0B4B06D10B48D8
:108D600008600821117006221A70704702280CBF93
:108D7000074808480860102111700C22F4E700BF72
:108D80009C2B0020982B00208A2C00203CDF000820
:108D90007BBF00083CC10008F0B55442A042059DCD
:108DA00016462FDD60282DDC002800EB0207BABF35
:108DB0004442E4B20024602FC4BFC0F16002D2B2CA
:108DC00071B92146DFF844C0914219DADCF800702D
:108DD00015F801E0074407F801E00131C9B2F3E7F3
:108DE00008290DD1102B18BF00263544064E944299
:108DF00008DA3368295D034419550134E4B2F6E713
:108E0000102BEFD0F0BD00BF802C00207C2C002068
:108E10000A28F7B509D11E4BB3F900201AB91D492C
:108E20000A8008221A8003B0F0BD1F28FBDDE1B9DB
:108E3000A0F12004A4B2184B184F1B783A78DD0833
:108E40005543DFF85CE0134EDEF800E0104904FB08
:108E500005E491F90010B6F900000094FFF79CFFBB
:108E600032883B7813443380DDE7C23980F08004D8
:108E70000329D8D8DFE801F0020406084034DAE715
:108E80008034D8E7C034D6E704F58074D3E700BF58
:108E9000882C0020862C0020982B00208A2C002073
:108EA0009C2B002010B50446207848B17F28C6BF0F
:108EB000014614F8010F0021FFF7AAFF0134F3E780
:108EC00010BD002307B504290093CDF803302EDD33
:108ED0000A21B0FBF1F301FB130230328DF80520BB
:108EE0009AB2B2FBF1F301FB132330338DF8043057
:108EF0006423B0FBF3F00A23B0FBF3F203FB120090
:108F000030308DF8030090B20A23B0FBF3F203FB7C
:108F1000120030308DF8020090B20A23B0FBF3F259
:108F200003FB120030308DF8010090B204E0E2D073
:108F30000329E9D00229F0D00A22B0FBF2F302FBA8
:108F4000130030308DF800006846FFF7ABFF03B028
:108F50005DF804FB08B5094A094B20301A6010225D
:108F6000084BC0B21A700C22074B00211A70FFF791
:108F70004FFFBDE808400020FFF7ECBE7BBF0008B4
:108F80009C2B0020982B00208A2C0020F0B5544206
:108F9000A0429DF8146025DD602823DC002800EB4A
:108FA0000205BABF4442E4B20024602DC4BFC0F140
:108FB0006002D2B249B921460B4F914210DA3D68A6
:108FC00005446E540131C9B2F7E7082908D10749B1
:108FD000944207DA0B6803441E550134E4B2F7E704
:108FE000102BF4D0F0BD00BF7C2C0020802C002082
:108FF0002DE9F04F0C1E9DF824E04FF0FF014FEAE1
:10900000D40621D04FF0600C04F0070401FA04F4F8
:10901000E1B20546E4430CFB06FCDFF8B090954254
:1090200012DAD9F800A005EB0C071AF80780BEF198
:10903000000F06D008EA040801350AF80780EDB2EF
:10904000EDE741EA0808F7E7F6B24FEAD30C6645C8
:109050001FD004464FF060084FF0FF0B4FF0000A9E
:10906000DFF86890944214DA354665450EDAD9F88F
:10907000007008FB0577BEF1000F04D007F804A0CC
:109080000135EDB2F1E707F804B0F9E70134E4B2D5
:10909000E8E703F007039940C943602301F0FF01AB
:1090A000CF4303FB0CFC094D90420DDA2E6800EB18
:1090B0000C03F45CBEF1000F04D03C400130F454CA
:1090C000C0B2F1E70C43F9E7BDE8F08F7C2C00203B
:1090D0000B4B37B504460E201D78FFF73BFF0C23E2
:1090E000B4FBF3F3012105F10C02C3F10A03009173
:1090F000DBB2D2B200212846FFF77AFF03B030BDC1
:10910000862C002000230122F0B51A4C87B006AD52
:10911000194845F8143D0293039205920494FDF713
:109120005CFA3522154B144FDA60FBF7F7FE0A2084
:10913000FBF742F81048FDF750FA294602A8FBF762
:109140009DFFFBF7EBFE0E4E0E4D3846FDF745FA40
:1091500004F17843A3F57C43F25A21460023012011
:109160000234FBF721FFAC42EFD1FBF7E9FE07B079
:10917000F0BD00BF00FC0008982E00200020024037
:109180008C2C00201CFC000810B5254C1C22002152
:10919000204602F094FE96236380062323714FF449
:1091A000A073162223800023022163716275227A44
:1091B00063F3C3022272227A63F382022272A279DB
:1091C00061F301020721A271A27961F38502A27104
:1091D000C322A2810A22E271227A42F001022272A3
:1091E0004FF4D272E281A27963F38712A271227ADC
:1091F00063F3410222726372A27A63F30002A272E5
:109200002A22A2743222E2740F22227540F6DC2256
:109210002282A375E375BDE81040FFF773BF00BF5E
:109220008C2C002030B4094B094A0A4D0A495C884D
:10923000581902338B421452F9D1537D162B02D0A8
:1092400030BCFFF7A1BF30BC704700BFFEFB000879
:109250008C2C00200204FFF71AFC0008064B03EBDD
:10926000400000231A4630F823100133202B0A4413
:10927000F9D1C2F38F007047A42E00200A2370B5E5
:1092800094B00A9301231022022500240E93109318
:109290004FF460130AA80F9213930F26119512949E
:1092A000FDF7A2F94FF4E063294605A80893059657
:1092B000069507940994FDF761FB4FF4004301A85C
:1092C00003930195FDF742FCFDF7FCFB4FF47A7325
:1092D000B0FBF3F0FBF78AFC0420FBF79DFC224671
:1092E00031464FF0FF30FBF741FC14B070BD000079
:1092F0002DE9F04FC14D99B0FFF7C0FF4FF0004A84
:109300006B684FF00208032723F0E0636B606B6823
:10931000BB4C43F080636B60A369BA4E43F02003FB
:10932000A361A36910A903F020030393039BA3691E
:10933000B54843F00403A361A3694FF0010903F0AA
:1093400004030493049BA3694FF4004B43F0080308
:10935000A361A36903F008030593059BC6F810A059
:10936000CDF84C8010971197FBF7D6FE6B6830460E
:1093700043F400436B6048F2FF7310A910931197F8
:10938000FBF7CAFE4FF6F773002510A99F4810930C
:10939000FBF7C2FE10A99D4810971195CDF8489093
:1093A000FBF7BAFE10A93046CDF840B0CDF8449096
:1093B000CDF84C80FBF7B0FEC6F810A00A20C6F826
:1093C00010A0FAF7F9FEC6F810B063692A4643EA1E
:1093D0000903636163690F2103EA090302930B2008
:1093E000029BFBF7C3FB0B20FBF7F4FB2A460F2184
:1093F0001020FBF7BBFB1020FBF7ECFB2A460F21EC
:109400001120FBF7B3FB1120FBF7E4FB804E8148F2
:10941000814B824C80E848004FF4804385600361B3
:10942000C56045618561C5610562FCF725F97C4B26
:10943000204623604FF48073A3604FF46023C4F888
:109440000C90E36165616560C4F81080FBF7B8F8C3
:109450004FF4803318AE46F8403D31462046FBF7C6
:1094600047FB4FF0040A07230CA920460E93CDF8C2
:1094700030A0CDF83490FAF763FF0CA92046CDF860
:109480003080CDF83480FAF75BFF4FF4405310A9D9
:10949000204617931097CDF84490CDF850A0CDF802
:1094A0004890169515951395FBF736FA10A92046A6
:1094B0001295CDF84480FBF72FFA10A9204611979A
:1094C000FBF72AFA10A92046CDF844A0FBF724FAAE
:1094D0002268536843F0800353602046FBF7F0F89E
:1094E00005460028F9D14F4C4F4B4FF0010823603F
:1094F0004FF480730227A3604FF460234FF00309F9
:109500004FF0070A606160602046E361C4F80C8098
:109510002761FBF755F80CA92046CDF838A0CDF807
:109520003090CDF83480FAF70BFF0CA92046CDF827
:1095300038A00C974FF0040A0D97FAF701FF4FF48B
:10954000405310A920461793169515951395CDF8FD
:109550004090CDF84480CDF850A0CDF84880FBF77E
:10956000DBF910A9204612951197FBF7D5F910A940
:109570002046CDF84490FBF7CFF910A92046CDF84E
:1095800044A02546FBF7C8F92846FBF799F804469E
:109590000028F9D1254D264B4FF4007B2B60022388
:1095A0006B60019364234FF4805AA860A861284639
:1095B000EB60C5F810B0FDF7CFFD31462846CDF879
:1095C00020A0FDF732FC2846FDF7FAFD2846FDF7FE
:1095D000DDFD06A9284606940794FDF74DFF3222CB
:1095E0004FF060080427119210A9224628461294D1
:1095F000CDF840801497FDF757FE1BE000000140B6
:10960000001002400008014000140140000C01401D
:10961000A0860100442E002000540040642F00204A
:1096200000240140D02D002000280140242F0020DC
:1096300000040040019B4FF040090D9303230CA947
:1096400034480F93CDF83090FBF766FD214628464D
:10965000FDF798FE4FF080414FF4FA632E4D85E8F8
:109660000A007A232846EB60AC60C5F810B0AC6104
:10967000FDF772FD0CA92846CDF830A0FDF7D5FB0B
:109680002846FDF79DFD2846FDF780FD314628461A
:1096900008940994FDF7F0FE762322460DEB0901AC
:1096A000284611931294CDF840801497FDF7FCFDE5
:1096B0000C220DEB0901284611941294CDF840803C
:1096C0001497FDF7C3FD2846FDF7A2FB2146284667
:1096D000FDF758FE0624284664250C21FDF796FE6A
:1096E0001C20FBF777FA0D4B0D4880E83800FCF79B
:1096F00053FF0C48FAF7E0FE4A460B490B48FBF7CC
:109700009DF80A48FBF744F80648FBF741F819B002
:10971000BDE8F08F000801401C3000200030004000
:10972000982E0020D02D0020A42E0020642F002091
:10973000084B1A790132D2B21A711A790F2AC4BFB2
:1097400000221A71044A1278032A04BF00221A71F7
:10975000704700BF8C2C00208C2D0020084BDA793C
:109760000132D2B2DA71DA793C2AC4BF0022DA714E
:10977000044A1278032A04BF0022DA71704700BF3E
:109780008C2C00208C2D0020314B5A7AB2FA82F2B8
:1097900052095A725A7A002A41D00520DA8992B2C7
:1097A00002EBC201A03191FBF0F189B2D981198895
:1097B00089B201EBC101A03191FBF0F189B21980AE
:1097C0005A8892B202EBC202A03292FBF0F20A2156
:1097D00092B25A80DA8992B2B2FBF1F2DA81DA8976
:1097E00092B202EB8202520092B2DA811A8892B2ED
:1097F000B2FBF1F21A801A8892B202EB8202520096
:1098000092B21A805A8892B2B2FBF1F25A805A8808
:1098100092B202EB8202520092B25A807047092043
:10982000DA8992B2203A02EB820292FBF0F189B21D
:10983000D981198889B2203901EB810191FBF0F1BE
:1098400089B219805A8892B2203A02EB8202BCE7B0
:109850008C2C00200A200A4B9A799979C2F3830252
:10986000013262F3850199719A79C2F3830292FB06
:10987000F0F100FB11219A7961F385029A7170472A
:109880008C2C002005490B7A0A7AC3F3C00383F0BD
:10989000010363F3C3020A72704700BF8C2C0020DF
:1098A00005490B7A0A7AC3F3800383F0010363F35B
:1098B00082020A72704700BF8C2C0020054B9A7AF6
:1098C00012F0010F9A7A0CBF42F001026FF300020E
:1098D0009A7270478C2C002005490B7A0A7A03F0A3
:1098E000010383F0010363F300020A72704700BFB3
:1098F0008C2C0020074B9A7999799209013262F3F6
:109900008711997199799A79C1F3801161F387125E
:109910009A7170478C2C002005490B7A0A7AC3F3A0
:10992000400383F0010363F341020A72704700BFF2
:109930008C2C002003220749CB7D0133DBB2CB7591
:10994000CB7DDBB293FBF2F202EB42029B1ADBB25D
:10995000CB7570478C2C002037B5002405460120BC
:10996000FFF7F8F90A4B1C800A4B1C800A4B53F88E
:109970002500FFF797FA102308481A4600EB451018
:10998000009021465020FFF707FA03B030BD00BF1A
:10999000862C0020882C0020A0000020ABEC0008C2
:1099A0000320FFF7D9BF0220FFF7D6BF0120FFF742
:1099B000D3BF0020FFF7D0BF0E4B99799A790131C0
:1099C00061F3010203219A719A7902F0030292FB7A
:1099D000F1F101EB4101521A997962F30101997198
:1099E000987910F0030002D0012800D07047FFF7EB
:1099F00085B900BF8C2C00200C4B5A7A5AB15A887A
:109A0000143292B25A805A8892B2B2F5117F01DDB7
:109A100078225A8070475A880A3292B25A805A88FD
:109A200092B2B2F5967FF5DD3222F2E78C2C00205F
:109A30000D4B5A7A6AB140F25231DA89143292B23D
:109A4000DA81DA8992B28A4202DD4FF4F072DA8169
:109A50007047DA890A3292B2DA81DA8992B2B2F5C3
:109A6000E17FF5DDFA22F2E78C2C0020D1220249B9
:109A70007820FFF73FB800BFA02B0020054B1B78D4
:109A80005843054B1880054B1B785943044B1980EC
:109A9000704700BF8A2C0020862C0020982B0020C5
:109AA000882C0020164B70B51B780546022B0E46FD
:109AB000144C1BD10120FFF74DF900210846FFF798
:109AC000DDFF54F83500FFF7EDF904EBC504002085
:109AD0000121FFF7D3FF6068FFF7E4F90020FFF7EB
